:1000000045C0000061C000005FC000005DC000008E
:100010005BC0000059C0000057C0000055C0000080
:1000200053C0000051C000004FC000004DC0000090
:100030004BC0000049C0000047C0000045C00000A0
:1000400053C2000041C0000076C300003DC0000064
:100050003BC0000039C0000037C0000035C00000C0
:1000600033C0000031C000002FC000002DC00000D0
:100070002BC0000029C0000027C0000025C00000E0
:1000800023C0000021C000001FC0000011241FBEBB
:10009000CFEFD0E1DEBFCDBF11E0A0E0B1E0E8E7F7
:1000A000F2E100E00BBF02C007900D92A637B10746
:1000B000D9F725E0A6E7B1E001C01D92AA30B2074A
:1000C000E1F774D20C943A099BCF4F925F926F92F2
:1000D0007F928F929F92AF92BF92EF92FF920F9377
:1000E0001F93CF93DF93CDB7DEB7C05AD1090FB6B8
:1000F000F894DEBF0FBECDBF8C01912C60E070E0A4
:10010000CB01E12CF12CA12CB12C8AC020ED280DC3
:100110002A30B0F420E030E040E251E431D52B0148
:100120003C01682D70E060537109072E000C880BAC
:10013000990B9AD49B01AC01C301B20196D36EC056
:100140002AE2921220C0350131E0631A7108660C70
:10015000771C660C771CE1E0F0E0EC0FFD1F6E0EE3
:100160007F1E9B01AC01F3016081718182819381CB
:1001700007D5F3016083718382839383982C60E0B9
:1001800070E0CB014BC0FFE29F1220C0350121E09F
:10019000621A7108660C771C660C771CE1E0F0E0CF
:1001A000EC0FFD1F6E0E7F1E9B01AC01F301608101
:1001B000718182819381BDD3F301608371838283D6
:1001C0009383982C60E070E0CB0128C095012F5FED
:1001D0003F4FAA0CBB1CAA0CBB1CE1E0F0E0EC0FEB
:1001E000FD1FEA0DFB1D6083718382839383992039
:1001F00081F0E1E8F0E0EC0FFD1FEE0DFF1D9082B5
:10020000982CC70101967C01590160E070E0CB0198
:1002100005C0982C590160E070E0CB010F5F1F4FC3
:10022000F8018080811072CFFAE29F121BC021E09A
:10023000A21AB108AA0CBB1CAA0CBB1CE1E0F0E09E
:10024000EC0FFD1FAE0EBF1E9B01AC01F5016081DE
:1002500071818281938194D4F5016083718382835B
:10026000938339C0FFE29F121BC085010150110921
:10027000000F111F000F111F21E030E02C0F3D1F58
:10028000020F131F9B01AC01F80160817181828113
:1002900093814FD3F80160837183828393831BC062
:1002A000AA0CBB1CAA0CBB1CE1E0F0E0EC0FFD1F8C
:1002B000EA0DFB1D6083718382839383992059F03B
:1002C000E1E8F0E0EC0FFD1FEE0DFF1D90829701BD
:1002D0002F5F3F4F790169817A818B819C8100E09A
:1002E00010E030C0E1E8F0E0EC0FFD1FE00FF11F7F
:1002F00020812B3291F4F8013196EE0FFF1FEE0FA3
:10030000FF1F21E030E02C0F3D1FE20FF31F208183
:10031000318142815381A9D213C02D3289F4F80171
:100320003196EE0FFF1FEE0FFF1F21E030E02C0F84
:100330003D1FE20FF31F208131814281538194D20E
:100340000F5F1F4F0E151F056CF2C056DF4F0FB623
:10035000F894DEBF0FBECDBFDF91CF911F910F91FB
:10036000FF90EF90BF90AF909F908F907F906F9095
:100370005F904F9008958FE08ABB8FEF8BBB0895FD
:100380001F93CF93DF93CDB7DEB760970FB6F89486
:10039000DEBF0FBECDBF20E1E2E2F1E0DE0111964B
:1003A00001900D922A95E1F72FEF2BBB4BB3E3E0C1
:1003B000F0E0E61BF70B21E030E002C0220F331F14
:1003C000EA95E2F7209524232BBB20E030E002C021
:1003D0002F5F3F4F24313105DCF349B3FC013496E4
:1003E00021E030E00E2E02C0220F331F0A94E2F704
:1003F00050E02423352302C035952795EA95E2F78E
:10040000211118C0FC01EE0FFF1FEE0FFF1FE0507F
:10041000FF4FE60FF71F3081313061F4880F991FCD
:10042000880F991F80509F4FFC01E60FF71F108225
:1004300010E032C0213069F5FC01EE0FFF1FEE0F16
:10044000FF1FE050FF4FE60FF71F2081211123C04F
:10045000880F991F880F991FFC01E050FF4FE60F8E
:10046000F71F21E0208321E030E02C0F3D1F820F99
:10047000931FFC01E60FF71F10811F921F9382E369
:1004800091E09F938F9306D40F900F900F900F9051
:1004900003C010E001C010E0812F60960FB6F89401
:1004A000DEBF0FBECDBFDF91CF911F9108950F9397
:1004B0001F93CF93DF9300E010E00EC0BE01C80190
:1004C0005FDF81110CC0219602C0C0E0D0E0C430D3
:1004D000D105A4F30F5F1F4F04301105B4F3DF9172
:1004E000CF911F910F9108951F920F920FB60F9207
:1004F00011240BB60F922F933F934F935F936F93FB
:100500007F938F939F93AF93BF93EF93FF93CF937B
:10051000DF931F92CDB7DEB7198286E082BF80914C
:10052000760190917701A0917801B09179010196BF
:10053000A11DB11D8093760190937701A09378015E
:10054000B0937901CC97A105B10570F010927601B6
:10055000109277011092780110927901A8DF8983B7
:10056000882311F08981CCD00F90DF91CF91FF913A
:10057000EF91BF91AF919F918F917F916F915F911B
:100580004F913F912F910F900BBE0F900FBE0F9088
:100590001F90189586E082BF83B7887F83BF83B79B
:1005A000846083BF87B7816087BF0895CF93DF934F
:1005B000CDB7DEB7D4500FB6F894DEBF0FBECDBFB7
:1005C00044D1E8DFD8DE91D080E191E09093070537
:1005D000809306057894FE01319680E094E0DF0177
:1005E0009C011D9221503040E1F700E010E054D012
:1005F000892BE9F762D08D3381F5CE0101967C011C
:10060000FC01E00FF11F108260DD2B013C01F9D1EC
:100610004B015C01072E000C880B990B25D29B0126
:10062000AC01C301B20120D120E030E048EC52E43B
:10063000A7D2E7D17F936F939F928F92FF92EF9211
:100640008CE391E09F938F9325D30FB6F894DEBF90
:100650000FBECDBF00E010E0CACFE1E0F0E0EC0F4C
:10066000FD1FE00FF11F80830F5F1F4FC0CF8091F0
:100670001E0190911F01019664E670E0E4D2209182
:100680002001309121018217930719F481E090E055
:10069000089580E090E0089520911E0130911F019F
:1006A00080912001909121012817390719F481E0E8
:1006B00090E0089580E090E00895EEDF892B21F02E
:1006C00084E591E0FAC20895809120019091210182
:1006D000019664E670E0B7D29093210180932001E7
:1006E000FC01E058FE4F808108958FEF9FEF9093BB
:1006F00021018093200190931F0180931E01089592
:10070000CF93C82FB4DF892B21F087E691E0D5D2B3
:1007100010C080911E0190911F01019664E670E067
:1007200092D290931F0180931E01FC01E058FE4F6E
:10073000C083CF9108951F920F920FB60F9211248C
:100740000BB60F922F933F934F935F936F937F93CB
:100750008F939F93AF93BF93EF93FF93CF93DF93C9
:100760001F92CDB7DEB78CB1898380917E019091C5
:100770007F0101962AE030E0B90165D2FC01809149
:100780007C0190917D01B9015ED2E817F90709F467
:1007900046C089818A3019F089818D3021F52091F8
:1007A0007E0130917F0180917A0190917B0140E53B
:1007B000429FF001439FF00D1124EC51FE4FE80FD2
:1007C000F91F108210927B0110927A0180917E01B4
:1007D00090917F0101966AE070E035D290937F019D
:1007E00080937E011CC060917E0170917F01809199
:1007F0007A0190917B019C012F5F3F4F30937B01E9
:1008000020937A01498150E5569F9001579F300D02
:1008100011242C513E4FF901E80FF91F40830F902E
:10082000DF91CF91FF91EF91BF91AF919F918F9108
:100830007F916F915F914F913F912F910F900BBEE0
:100840000F900FBE0F901F901895109290008FEC94
:1008500089B98BB182608BB98AB188698AB90895E8
:100860005D9BFECF8CB908955058BB27AA270ED0A8
:100870004DC13ED130F043D120F031F49F3F11F40F
:100880001EF433C10EF4E095E7FB29C1E92F4FD1E7
:1008900080F3BA17620773078407950718F071F49D
:1008A0009EF567C10EF4E0950B2EBA2FA02D0B011B
:1008B000B90190010C01CA01A0011124FF27591BA5
:1008C00099F0593F50F4503E68F11A16F040A22FAB
:1008D000232F342F4427585FF3CF4695379527951C
:1008E000A795F0405395C9F77EF41F16BA0B620B1B
:1008F000730B840BBAF09150A1F0FF0FBB1F661F62
:10090000771F881FC2F70EC0BA0F621F731F841FA4
:1009100048F4879577956795B795F7959E3F08F0CA
:10092000B3CF9395880F08F09927EE0F9795879589
:1009300008950CD0EBC0E3D040F0DAD030F021F4D1
:100940005F3F19F0CCC0511115C1CFC0F0D098F362
:100950009923C9F35523B1F3951B550BBB27AA2740
:1009600062177307840738F09F5F5F4F220F331FB2
:10097000441FAA1FA9F333D00E2E3AF0E0E830D07E
:1009800091505040E695001CCAF729D0FE2F27D081
:10099000660F771F881FBB1F261737074807AB074F
:1009A000B0E809F0BB0B802DBF01FF2793585F4FC4
:1009B0002AF09E3F510568F092C0DCC05F3FECF327
:1009C000983EDCF3869577956795B795F7959F5F89
:1009D000C9F7880F911D9695879597F90895E1E0DD
:1009E000660F771F881FBB1F621773078407BA073C
:1009F00020F0621B730B840BBA0BEE1F88F7E09597
:100A0000089504D06894B111B5C0089598D088F0C5
:100A10009F5790F0B92F9927B751A0F0D1F0660FEA
:100A2000771F881F991F1AF0BA95C9F712C0B13005
:100A300081F09FD0B1E008959CC0672F782F882760
:100A4000B85F39F0B93FCCF3869577956795B39544
:100A5000D9F73EF490958095709561957F4F8F4FB3
:100A60009F4F0895E89409C097FB3EF490958095B8
:100A7000709561957F4F8F4F9F4F9923A9F0F92F64
:100A800096E9BB279395F695879577956795B795E2
:100A9000F111F8CFFAF4BB0F11F460FF1BC06F5FC8
:100AA0007F4F8F4F9F4F16C0882311F096E911C0DA
:100AB000772321F09EE8872F762F05C0662371F0FB
:100AC00096E8862F70E060E02AF09A95660F771F0F
:100AD000881FDAF7880F9695879597F9089597F903
:100AE0009F6780E870E060E008959FEF80EC0895D4
:100AF00000240A94161617061806090608950024FD
:100B00000A9412161306140605060895092E039476
:100B1000000C11F4882352F0BB0F40F4BF2B11F4EA
:100B200060FF04C06F5F7F4F8F4F9F4F089557FD49
:100B30009058440F551F59F05F3F71F04795880F4B
:100B400097FB991F61F09F3F79F0879508951216E2
:100B500013061406551FF2CF4695F1DF08C016168E
:100B600017061806991FF1CF86957105610508943F
:100B70000895E894BB2766277727CB0197F9089556
:100B80000BD0C4CFB5DF28F0BADF18F0952309F0F9
:100B9000A6CFABCF1124EECFCADFA0F3959FD1F340
:100BA000950F50E0551F629FF001729FBB27F00D1B
:100BB000B11D639FAA27F00DB11DAA1F649F662770
:100BC000B00DA11D661F829F2227B00DA11D621FBF
:100BD000739FB00DA11D621F839FA00D611D221F79
:100BE000749F3327A00D611D231F849F600D211D5D
:100BF000822F762F6A2F11249F5750408AF0E1F000
:100C000088234AF0EE0FFF1FBB1F661F771F881F48
:100C100091505040A9F79E3F510570F060CFAACF88
:100C20005F3FECF3983EDCF3869577956795B79533
:100C3000F795E7959F5FC1F7FE2B880F911D96955D
:100C4000879597F9089597FB072E16F4009406D020
:100C500077FD08D00BD007FC05D03EF49095819528
:100C60009F4F0895709561957F4F0895AA1BBB1BF8
:100C700051E107C0AA1FBB1FA617B70710F0A61B9C
:100C8000B70B881F991F5A95A9F780959095BC01BD
:100C9000CD010895CF93DF93CDB7DEB7AE014B5FA3
:100CA0005F4FFA0161917191AF01809106059091BA
:100CB000070533D0DF91CF9108950F931F93CF9302
:100CC000DF93E0910605F0910705238121FF1BC00A
:100CD0008C01D0E0C0E0F80181918F0160910605A0
:100CE00070910705DB011896ED91FC911997882307
:100CF00031F00995892B79F3DFEFCFEFECCF8AE064
:100D00000995892B19F08FEF9FEF02C08D2F9C2F33
:100D1000DF91CF911F910F9108952F923F924F92A3
:100D20005F926F927F928F929F92AF92BF92CF927B
:100D3000DF92EF92FF920F931F93CF93DF93CDB784
:100D4000DEB72B970FB6F894DEBF0FBECDBF6C0198
:100D50007B018A01FC0117821682838181FFBFC15A
:100D6000CE0101963C01F6019381F70193FD859137
:100D700093FF81917F01882309F4ADC1853239F455
:100D800093FD859193FF81917F01853221F4B60116
:100D900090E0D6D1E8CF912C212C312CFFE1F31536
:100DA000D8F08B3279F038F4803279F08332A1F4C4
:100DB000232D20611DC08D3261F0803369F4232D15
:100DC000216016C0832D8260382EE32DE4603E2E14
:100DD0002AC0F32DF8601DC037FC2DC020ED280F70
:100DE0002A3040F08E32B9F436FC75C1232D2064D0
:100DF000322E19C036FE06C08AE0989E200D1124BE
:100E0000922E11C0EAE02E9E200D1124222EF32DE9
:100E1000F0623F2E08C08C3621F4832D8068382E76
:100E200002C0883641F4F70193FD859193FF8191CB
:100E30007F018111B3CF982F9F7D9554933028F473
:100E40000C5F1F4F9FE399830DC0833631F08337CA
:100E500071F0833509F055C020C0F8018081898385
:100E60000E5F1F4F88248394912C530112C02801D8
:100E7000F2E04F0E511CF801A080B18036FE03C095
:100E8000692D70E002C06FEF7FEFC5014ED14C01BC
:100E90008201F32DFF773F2E15C0280122E0420E7C
:100EA000511CF801A080B18036FE03C0692D70E0AE
:100EB00002C06FEF7FEFC5012DD14C01F32DF0681B
:100EC0003F2E820133FC19C0822D90E088169906CE
:100ED000A0F4B60180E290E033D12A94F5CFF50179
:100EE00037FC859137FE81915F01B60190E028D1F2
:100EF00021102A9421E0821A91088114910479F733
:100F0000E1C0843611F0893639F5F80137FE07C0A3
:100F100060817181828193810C5F1F4F08C0608165
:100F20007181072E000C880B990B0E5F1F4FF32D5C
:100F3000FF763F2E97FF09C090958095709561953B
:100F40007F4F8F4F9F4FF0683F2E2AE030E0A30184
:100F500033D1882E861844C0853731F4232D2F7E57
:100F6000B22E2AE030E025C0932D997FB92E8F361E
:100F7000C1F018F4883579F0AEC0803719F08837A1
:100F800021F0A9C0E92FE061BE2EB4FE0DC0FB2DFB
:100F9000F460BF2E09C034FE0AC0292F2660B22E8D
:100FA00006C028E030E005C020E130E002C020E1CA
:100FB00032E0F801B7FE07C06081718182819381C0
:100FC0000C5F1F4F06C06081718180E090E00E5F72
:100FD0001F4FA301F1D0882E8618FB2DFF773F2EDF
:100FE00036FE0DC0232D2E7FA22E891458F434FE18
:100FF0000BC032FC09C0832D8E7EA82E05C0B82CF4
:10100000A32C03C0B82C01C0B92CA4FE0FC0FE0154
:10101000E80DF11D8081803321F49A2D997EA92E4F
:1010200009C0A2FE06C0B394B39404C08A2D86788A
:1010300009F0B394A3FC10C0A0FE06C0B21480F463
:10104000280C922C9B180DC0B21458F4B60180E203
:1010500090E076D0B394F8CFB21418F42B1802C0F5
:10106000982C212CA4FE0FC0B60180E390E068D03C
:10107000A2FE16C0A1FC03C088E790E002C088E58C
:1010800090E0B6010CC08A2D867851F0A1FE02C016
:101090008BE201C080E2A7FC8DE2B60190E050D067
:1010A000891430F4B60180E390E04AD09A94F8CFE6
:1010B0008A94F301E80DF11D8081B60190E040D0E3
:1010C0008110F6CF222009F44ECEB60180E290E0E6
:1010D00037D02A94F7CFF6018681978102C08FEF2F
:1010E0009FEF2B960FB6F894DEBF0FBECDBFDF91FA
:1010F000CF911F910F91FF90EF90DF90CF90BF9015
:10110000AF909F908F907F906F905F904F903F90A7
:101110002F900895FC010590615070400110D8F7A0
:10112000809590958E0F9F1F0895FC01615070402F
:1011300001900110D8F7809590958E0F9F1F08950C
:101140000F931F93CF93DF93FB01238121FD03C0F6
:101150008FEF9FEF2CC022FF16C04681578124815C
:1011600035814217530744F4A081B1819D012F5F5F
:101170003F4F318320838C93268137812F5F3F4FF0
:101180003783268314C08B01EC01FB010084F185B9
:10119000E02D0995892BE1F6D80116968D919C9149
:1011A0001797019617969C938E931697CE01DF9111
:1011B000CF911F910F910895FA01AA27283051F17C
:1011C000203181F1E8946F936E7F6E5F7F4F8F4F78
:1011D0009F4FAF4FB1E03ED0B4E03CD0670F781FD7
:1011E000891F9A1FA11D680F791F8A1F911DA11DBC
:1011F0006A0F711D811D911DA11D20D009F46894F5
:101200003F912AE0269F11243019305D3193DEF69C
:10121000CF010895462F4770405D4193B3E00FD052
:10122000C9F7F6CF462F4F70405D4A3318F0495D3D
:1012300031FD4052419302D0A9F7EACFB4E0A69520
:101240009795879577956795BA95C9F70097610542
:10125000710508959B01AC010A2E06945795479598
:1012600037952795BA95C9F7620F731F841F951F8D
:08127000A01D0895F894FFCFC2
:101278000101010101010101010101010101010156
:101288000000000200000000300400000000FFFF22
:10129800FFFF20303D2B3435362A3738392D31328F
:1012A800332F6B6579203A2025630A0065787072C0
:1012B800657373696F6E3A2025733D25642E25305A
:1012C80032640A00517565756520697320656D7013
:1012D8007479202121210071756575652066756C0A
:0612E8006C212121210010
:00000001FF
