S013000030372E4155544F5F4341522E737265630E
S113000087C00000A3C00000A1C000009FC0000082
S11300109DC000001EC500007FC50000E0C50000B3
S113002095C0000093C0000091C000008FC0000084
S11300308DC000008BC0000089C0000087C0000094
S11300404BC3000083C00000D4C400007FC0000084
S11300507DC000007BC0000079C0000077C00000B4
S113006075C0000073C0000071C000006FC00000C4
S11300706DC000006BC0000069C0000067C00000D4
S113008065C0000063C0000061C00000F700070104
S11300901E0139015001590162016B019501A3014F
S11300A0B801DA01EF01FB01070213028D029A0283
S11300B09A029A0289029A029A029A029A029A026D
S11300C091029A029A029A029A029A02950299025B
S11300D09A029A029A029A029A029A029A029A023C
S11300E09A029A029A029A029A029A028D029A0239
S11300F09A029A0289029A029A029A029A029A022D
S113010091029A029A029A029A029A02950299021A
S113011011241FBECFEFD0E1DEBFCDBF11E0A0E0C0
S1130120B1E0E2E5F6E100E00BBF02C007900D92FA
S1130130A434B107D9F724E0A4E4B1E001C01D92CE
S1130140AF39B207E1F771D30C94270B59CF8AB3B7
S11301508F7E8ABB089529B3422F50E021E030E01E
S113016002C0220F331F6A95E2F724233523211599
S1130170310571F0FC01EC5BFE4F4081411108C078
S1130180FC01EC5BFE4F21E0208380E090E00895C9
S1130190FC01EC5BFE4F4081413049F4232B51F4C8
S11301A0FC01EC5BFE4F108281E090E0089580E05A
S11301B090E0089580E090E008958FEF81BB95B3BF
S11301C085BB94B384BB12BA08950F931F93CF9346
S11301D0C22F2FEF25BB12BAE0914701F0914801DD
S11301E0E830F10508F07FC0EA5BFF4F67C72FEFE7
S11301F025BB2AE030E040E050E03ED7FB01E95D5A
S1130200FE4F808182BB85B3877F85BB6CC02FEF97
S113021025BB2AE030E040E050E02ED7CA01B90106
S113022026E030E040E050E027D7FB01E95DFE4FD7
S1130230808182BB85B38B7F85BB55C02FEF25BBE7
S11302402CE330E040E050E017D7CA01B9012AE0BE
S113025030E040E050E010D7FB01E95DFE4F8081C3
S1130260C795CC27C795C82BC2BB85B38D7F85BBEB
S11302703AC02FEF25BB28E532E040E050E0FCD641
S1130280CA01B90126E030E040E050E0F5D6FB01B8
S1130290E95DFE4F808182BB85B38E7F85BB23C021
S11302A0F801EE5DFE4F808182BB85B38F7785BBFD
S11302B01AC0F801EE5DFE4F808182BB85B38F7B4F
S11302C085BB11C0F801EE5DFE4F808182BB85B312
S11302D08F7D85BB08C0F801EE5DFE4F808182BB37
S11302E085B38F7E85BB809147019091480101962B
S11302F087709078992324F40197886F9F6F0196F3
S11303009093480180934701CF911F910F910895D5
S11303102FEF25BBE0914501F0914601E830F1054E
S113032008F08CC0E25BFF4FC9C62AE030E040E031
S113033050E0A2D6FB01E95EFE4F808182BB85B30B
S1130340877F85BB7BC02AE030E040E050E094D654
S1130350CA01B90126E030E040E050E08DD6FB014F
S1130360E95EFE4F808182BB85B38B7F85BB66C00F
S11303702CE330E040E050E07FD6CA01B9012AE026
S113038030E040E050E078D6FB01E95EFE4F90811A
S113039040915E0150915F01609160017091610133
S11303A0479544274795842F892B82BB85B38D7F3E
S11303B085BB44C028E532E040E050E05DD6CA0188
S11303C0B90126E030E040E050E056D6FB01E95E9A
S11303D0FE4F808182BB85B38E7F85BB2FC0E091A9
S11303E04901F0914A01E95EFE4F808182BB85B3E9
S11303F08F7785BB23C0E0915101F0915201E95EF2
S1130400FE4F808182BB85B38F7B85BB17C0E09193
S11304104B01F0914C01E95EFE4F808182BB85B3B4
S11304208F7D85BB0BC0E0914D01F0914E01E95EDB
S1130430FE4F808182BB85B38F7E85BB8091450151
S113044090914601019687709078992324F401973E
S1130450886F9F6F0196909346018093450108959C
S11304608230910521F134F4009759F081309105DF
S113047099F008958330910529F18430910569F14B
S11304800895880F991FFC01E75BFE4F80819181DD
S11304900196918380830895880F991FFC01E75B7F
S11304A0FE4F808191810196918380830895880F06
S11304B0991FFC01E75BFE4F808191810196918336
S11304C080830895880F991FFC01E75BFE4F8081AC
S11304D091810196918380830895880F991FFC016F
S11304E0E75BFE4F8081918101969183808308951B
S11304F08FEF8ABB1BBA0895E09198048E2F90E089
S1130500FC01E254F109E233F105A0F4EA5AFF4F89
S1130510D5C584EF91E019C2089584EF91E023C218
S113052008958CEB92E02DC208958CEB92E037C2D3
S1130530089543C2089580910001823099F028F40F
S1130540882341F0813051F00895833099F084304C
S113055069F0089580E991E0F8C1089588E592E092
S113056010C2089588E592E01AC2089580E991E0E6
S1130570FAC1089522C20895409172015091730105
S113058020917401309175018091760190917701E9
S11305905F934F933F932F939F938F9382E391E0C5
S11305A09F938F9394D580915301909154012DB7CB
S11305B03EB7285F3F4F0FB6F8943EBF0FBE2DBF26
S11305C01816190654F4809153019091540101971F
S11305D090935401809353010895809174019091F4
S11305E075010F976CF484E0809300018CE390E034
S11305F0909354018093530184E090E031CF0895A7
S1130600809176019091770140976CF482E0809319
S113061000018EE190E0909354018093530182E0B5
S113062090E01ECF089580917201909173010E970E
S11306306CF481E0809300018EE190E0909354018A
S11306408093530181E090E00BCF08951092000154
S113065080E090E005CF089580915501813069F0E4
S113066028F08230D9F0833051F1089580E090E091
S113067019D381E080935501089580917001909180
S11306807101892B41F1109271011092700181E086
S113069090E008D382E080935501089580916E0123
S11306A090916F01892BB9F010926F0110926E0135
S11306B082E090E0F7D283E0809355010895809121
S11306C06C0190916D01892B31F010926D011092A3
S11306D06C011092550108951F920F920FB60F925C
S11306E011240BB60F920F931F932F933F934F93A5
S11306F05F936F937F938F939F93AF93BF93EF9386
S1130700FF9386E082BF8091560190915701892B17
S113071009F46AC080915A0190915B01A0915C0137
S1130720B0915D010196A11DB11D80935A01909372
S11307305B01A0935C01B0935D0120915E01309157
S11307405F0140916001509161016091620170917B
S1130750630180916401909165010091000110E0B2
S113076034DD80915A0190915B01A0915C01B091BC
S11307705D01883E9340A105B105B0F1809162010D
S113078090916301A0916401B09165010196A11D4E
S1130790B11D8093620190936301A0936401B093AF
S11307A0650110925A0110925B0110925C01109243
S11307B05D0140915E0150915F0160916001709113
S11307C0610181E090E0A0E0B0E0452B462B472B8F
S11307D019F080E090E0DC0180935E0190935F016A
S11307E0A0936001B0936101FF91EF91BF91AF912C
S11307F09F918F917F916F915F914F913F912F9135
S11308001F910F910F900BBE0F900FBE0F901F9072
S1130810189586E082BF83B7887F83BF83B78460DF
S113082083BF87B7816087BF089562DEF2DFD2D0CD
S1130830C4DC8DDC789472D05DD06FD289E091E015
S113084090939C0480939B04E0915801F09159018A
S1130850EE0FFF1FEF5FFE4F0190F081E02D099531
S113086064E070E080E090E076DC892B91F081E038
S113087090E020915801309159012130310511F453
S113088080E090E09093590180935801892B09F4FA
S113089094D080915801909159018130910571F45F
S11308A081E090E09093570180935601D5DE8091CA
S11308B055018111C9CF60DE3EDEC6CF892B09F018
S11308C0C3CF109257011092560120915A013091D2
S11308D05B0140915C0150915D01609162017091F6
S11308E0630180916401909165010091000110E021
S11308F00FDDAACF8EB583608EBD8FB582608FBDAC
S11309008EB588618EBD8FB580688FBD8FB58062CE
S11309108FBD8FEF93E097BD86BD089587B38F7920
S113092087BB87B3806687BBE1E6F0E08081807F88
S1130930808380818F608083E2E6F0E08081807F25
S1130940808380818560808308959C01E2E6F0E0E5
S11309509081907F908390819560908339BD28BD6C
S11309603BBD2ABD08959C01E2E6F0E09081907FB2
S1130970908390819A60908339BD28BD3BBD2ABD88
S113098008959C01E2E6F0E09081907F908390814D
S1130990956090831BBC1ABC39BD28BD08959C0189
S11309A0E2E6F0E09081907F90839081956090835F
S11309B03BBD2ABD19BC18BC0895E2E6F0E0808175
S11309C0807F808380818F6080831BBC1ABC19BCAC
S11309D018BC0895109290008FEC89B98BB1826095
S11309E08BB98AB188698AB908955D9BFECF8CB9A9
S11309F008951F920F920FB60F9211240BB60F9207
S1130A002F933F934F935F936F937F938F939F9312
S1130A10AF93BF93EF93FF938CB1809398049BB3F0
S1130A2081E089278BBB80919804DFDFFF91EF91F0
S1130A30BF91AF919F918F917F916F915F914F91F2
S1130A403F912F910F900BBE0F900FBE0F901F90F0
S1130A5018951F920F920FB60F9211240BB60F9296
S1130A602F933F934F935F936F937F938F939F93B2
S1130A70AF93BF93EF93FF930C9B09C080918800C1
S1130A809091890090936B0180936A0132C06091C8
S1130A9088007091890080916A0190916B01681BB4
S1130AA0790B80E090E0F7D120E034E244E759E4A8
S1130AB080D220E030E040E854E47BD220E034E20D
S1130AC044E75BE44FD120E030E048E652E44AD109
S1130AD0B1D19B01215031092F38314020F470935A
S1130AE077016093760181E090E0909371018093A7
S1130AF07001FF91EF91BF91AF919F918F917F9181
S1130B006F915F914F913F912F910F900BBE0F907A
S1130B100FBE0F901F9018951F920F920FB60F9251
S1130B2011240BB60F922F933F934F935F936F93C0
S1130B307F938F939F93AF93BF93EF93FF930D9BFB
S1130B4009C08091880090918900909369018093F5
S1130B50680132C0609188007091890080916801B9
S1130B6090916901681B790B80E090E094D120E0BA
S1130B7034E244E759E41DD220E030E040E854E494
S1130B8018D220E034E244E75BE4ECD020E030E02B
S1130B9048E652E4E7D04ED19B01215031092F3869
S1130BA0314020F4709375016093740181E090E00A
S1130BB090936F0180936E01FF91EF91BF91AF917C
S1130BC09F918F917F916F915F914F913F912F9161
S1130BD00F900BBE0F900FBE0F901F9018951F9291
S1130BE00F920FB60F9211240BB60F922F933F93CF
S1130BF04F935F936F937F938F939F93AF93BF9321
S1130C00EF93FF930E9B09C0809188009091890017
S1130C10909367018093660132C06091880070915F
S1130C2089008091660190916701681B790B80E0CF
S1130C3090E031D120E034E244E759E4BAD120E035
S1130C4030E040E854E4B5D120E034E244E75BE42A
S1130C5089D020E030E048E652E484D0EBD09B0118
S1130C60215031092F38314020F47093730160937F
S1130C70720181E090E090936D0180936C01FF918B
S1130C80EF91BF91AF919F918F917F916F915F9100
S1130C904F913F912F910F900BBE0F900FBE0F906D
S1130CA01F901895CF93DF9300D0CDB7DEB79A830A
S1130CB0898329813A8181E090E0AC0102C0440F2C
S1130CC0551F2A95E2F79A01209530953BB32323CB
S1130CD02BBB55E05A95F1F7000029813A81AC010C
S1130CE002C0440F551F2A95E2F79A013BB3232B08
S1130CF02BBB50E55A95F1F729813A8102C0880F40
S1130D00991F2A95E2F7809590959BB389238BBB15
S1130D100F900F90DF91CF9108958AB387608ABBBB
S1130D2082B18F7882B98AB785618ABF10928B00AD
S1130D30EAE8F0E010821092890010928800808125
S1130D408560808389B7806789BF2FEF81EE94E047
S1130D50215080409040E1F700C0000080E090E026
S1130D60A1CF08950CD0EBC0E3D040F0DAD030F03E
S1130D7021F45F3F19F0CCC0511115C1CFC0F0D0A0
S1130D8098F39923C9F35523B1F3951B550BBB274E
S1130D90AA2762177307840738F09F5F5F4F220FFB
S1130DA0331F441FAA1FA9F333D00E2E3AF0E0E8F4
S1130DB030D091505040E695001CCAF729D0FE2F40
S1130DC027D0660F771F881FBB1F261737074807D2
S1130DD0AB07B0E809F0BB0B802DBF01FF27935888
S1130DE05F4F2AF09E3F510568F092C0DCC05F3F20
S1130DF0ECF3983EDCF3869577956795B795F79570
S1130E009F5FC9F7880F911D9695879597F9089567
S1130E10E1E0660F771F881FBB1F62177307840703
S1130E20BA0720F0621B730B840BBA0BEE1F88F712
S1130E30E095089504D06894B111B5C0089598D090
S1130E4088F09F5790F0B92F9927B751A0F0D1F0AF
S1130E50660F771F881F991F1AF0BA95C9F712C039
S1130E60B13081F09FD0B1E008959CC0672F782FF6
S1130E708827B85F39F0B93FCCF3869577956795A5
S1130E80B395D9F73EF490958095709561957F4F11
S1130E908F4F9F4F0895E89409C097FB3EF49095B7
S1130EA08095709561957F4F8F4F9F4F9923A9F03F
S1130EB0F92F96E9BB279395F695879577956795CE
S1130EC0B795F111F8CFFAF4BB0F11F460FF1BC012
S1130ED06F5F7F4F8F4F9F4F16C0882311F096E9A5
S1130EE011C0772321F09EE8872F762F05C0662353
S1130EF071F096E8862F70E060E02AF09A95660F0C
S1130F00771F881FDAF7880F9695879597F90895C4
S1130F1097F99F6780E870E060E008959FEF80ECA8
S1130F20089500240A94161617061806090608954B
S1130F3000240A9412161306140605060895092EB1
S1130F400394000C11F4882352F0BB0F40F4BF2B20
S1130F5011F460FF04C06F5F7F4F8F4F9F4F089560
S1130F6057FD9058440F551F59F05F3F71F0479556
S1130F70880F97FB991F61F09F3F79F0879508953B
S1130F80121613061406551FF2CF4695F1DF08C05A
S1130F90161617061806991FF1CF86957105610577
S1130FA008940895E894BB2766277727CB0197F91F
S1130FB008950BD0C4CFB5DF28F0BADF18F095231D
S1130FC009F0A6CFABCF1124EECFCADFA0F3959FD3
S1130FD0D1F3950F50E0551F629FF001729FBB271C
S1130FE0F00DB11D639FAA27F00DB11DAA1F649FC8
S1130FF06627B00DA11D661F829F2227B00DA11D7B
S1131000621F739FB00DA11D621F839FA00D611D00
S1131010221F749F3327A00D611D231F849F600D21
S1131020211D822F762F6A2F11249F5750408AF05A
S1131030E1F088234AF0EE0FFF1FBB1F661F771FE6
S1131040881F91505040A9F79E3F510570F060CF22
S1131050AACF5F3FECF3983EDCF3869577956795CE
S1131060B795F795E7959F5FC1F7FE2B880F911D04
S11310709695879597F90895A1E21A2EAA1BBB1B92
S1131080FD010DC0AA1FBB1FEE1FFF1FA217B30750
S1131090E407F50720F0A21BB30BE40BF50B661F66
S11310A0771F881F991F1A9469F76095709580952A
S11310B090959B01AC01BD01CF010895EE0FFF1F78
S11310C00024001C0BBE0790F691E02D0994CF93E9
S11310D0DF93CDB7DEB7AE014B5F5F4FFA0161918D
S11310E07191AF0180919B0490919C0403D0DF9196
S11310F0CF9108952F923F924F925F926F927F9279
S11311008F929F92AF92BF92CF92DF92EF92FF9213
S11311100F931F93CF93DF93CDB7DEB72B970FB603
S1131120F894DEBF0FBECDBF6C017B018A01FC01C8
S113113017821682838181FFBFC1CE0101963C01D3
S1131140F6019381F70193FD859193FF81917F01CE
S1131150882309F4ADC1853239F493FD859193FF59
S113116081917F01853221F4B60190E0D6D1E8CF98
S1131170912C212C312CFFE1F315D8F08B3279F02E
S113118038F4803279F08332A1F4232D20611DC01C
S11311908D3261F0803369F4232D216016C0832DD4
S11311A08260382EE32DE4603E2E2AC0F32DF860D1
S11311B01DC037FC2DC020ED280F2A3040F08E32A0
S11311C0B9F436FC75C1232D2064322E19C036FEC5
S11311D006C08AE0989E200D1124922E11C0EAE0E8
S11311E02E9E200D1124222EF32DF0623F2E08C0D6
S11311F08C3621F4832D8068382E02C0883641F461
S1131200F70193FD859193FF81917F018111B3CF04
S1131210982F9F7D9554933028F40C5F1F4F9FE3C4
S113122099830DC0833631F0833771F0833509F02B
S113123055C020C0F801808189830E5F1F4F882428
S11312408394912C530112C02801F2E04F0E511CDB
S1131250F801A080B18036FE03C0692D70E002C0A1
S11312606FEF7FEFC5014ED14C018201F32DFF7763
S11312703F2E15C0280122E0420E511CF801A08027
S1131280B18036FE03C0692D70E002C06FEF7FEFBE
S1131290C5012DD14C01F32DF0683F2E820133FCA2
S11312A019C0822D90E088169906A0F4B60180E258
S11312B090E033D12A94F5CFF50137FC859137FEC0
S11312C081915F01B60190E028D121102A9421E098
S11312D0821A91088114910479F7E1C0843611F0DF
S11312E0893639F5F80137FE07C060817181828142
S11312F093810C5F1F4F08C060817181072E000C21
S1131300880B990B0E5F1F4FF32DFF763F2E97FF2F
S113131009C090958095709561957F4F8F4F9F4F31
S1131320F0683F2E2AE030E0A30133D1882E8618DE
S113133044C0853731F4232D2F7EB22E2AE030E0CD
S113134025C0932D997FB92E8F36C1F018F48835B6
S113135079F0AEC0803719F0883721F0A9C0E92FA1
S1131360E061BE2EB4FE0DC0FB2DF460BF2E09C09B
S113137034FE0AC0292F2660B22E06C028E030E0D1
S113138005C020E130E002C020E132E0F801B7FE00
S113139007C060817181828193810C5F1F4F06C0F9
S11313A06081718180E090E00E5F1F4FA301F1D056
S11313B0882E8618FB2DFF773F2E36FE0DC0232D79
S11313C02E7FA22E891458F434FE0BC032FC09C0BF
S11313D0832D8E7EA82E05C0B82CA32C03C0B82C58
S11313E001C0B92CA4FE0FC0FE01E80DF11D8081DF
S11313F0803321F49A2D997EA92E09C0A2FE06C03D
S1131400B394B39404C08A2D867809F0B394A3FCF2
S113141010C0A0FE06C0B21480F4280C922C9B18B5
S11314200DC0B21458F4B60180E290E076D0B394C3
S1131430F8CFB21418F42B1802C0982C212CA4FE57
S11314400FC0B60180E390E068D0A2FE16C0A1FCF4
S113145003C088E790E002C088E590E0B6010CC0C4
S11314608A2D867851F0A1FE02C08BE201C080E291
S1131470A7FC8DE2B60190E050D0891430F4B60197
S113148080E390E04AD09A94F8CF8A94F301E80D6F
S1131490F11D8081B60190E040D08110F6CF22206A
S11314A009F44ECEB60180E290E037D02A94F7CF0B
S11314B0F6018681978102C08FEF9FEF2B960FB6BE
S11314C0F894DEBF0FBECDBFDF91CF911F910F9176
S11314D0FF90EF90DF90CF90BF90AF909F908F9050
S11314E07F906F905F904F903F902F900895FC01F4
S11314F00590615070400110D8F7809590958E0F3B
S11315009F1F0895FC016150704001900110D8F7AD
S1131510809590958E0F9F1F08950F931F93CF93DF
S1131520DF93FB01238121FD03C08FEF9FEF2CC0CC
S113153022FF16C046815781248135814217530703
S113154044F4A081B1819D012F5F3F4F31832083FB
S11315508C93268137812F5F3F4F3783268314C0B6
S11315608B01EC01FB010084F185E02D0995892BA9
S1131570E1F6D80116968D919C91179701961796CE
S11315809C938E931697CE01DF91CF911F910F916B
S11315900895FA01AA27283051F1203181F1E89405
S11315A06F936E7F6E5F7F4F8F4F9F4FAF4FB1E052
S11315B03ED0B4E03CD0670F781F891F9A1FA11D4D
S11315C0680F791F8A1F911DA11D6A0F711D811D4E
S11315D0911DA11D20D009F468943F912AE0269F13
S11315E011243019305D3193DEF6CF010895462F72
S11315F04770405D4193B3E00FD0C9F7F6CF462F53
S11316004F70405D4A3318F0495D31FD40524193BB
S113161002D0A9F7EACFB4E0A69597958795779578
S11316206795BA95C9F700976105710508959B01FF
S1131630AC010A2E06945795479537952795BA9588
S1131640C9F7620F731F841F951FA01D0895F89496
S1051650FFCFC6
S1131652037C029B02BC022C030000000200000077
S113166200F504000000003F065B4F666D7D277F96
S113167267807138506DFC3F065B4F666D7D277F36
S113168267804C3D256420433D256420523D2564FA
S10716920D0A000039
S9030000FC
