:1000000077C0000093C0000091C000008FC00000C6
:100010008DC0000068C40000C9C400002AC50000EB
:1000200085C0000083C0000081C000007FC00000C8
:100030007DC000007BC0000079C0000077C00000D8
:100040009EC2000073C000001EC400006FC000000C
:100050006DC000006BC0000069C0000067C00000F8
:1000600065C0000063C0000061C000005FC0000008
:100070005DC000005BC0000059C0000057C0000018
:1000800055C0000053C0000051C00000EC01F90150
:10009000F901F901E801F901F901F901F901F901A1
:1000A000F001F901F901F901F901F901F401F8018F
:1000B000F901F901F901F901F901F901F901F90170
:1000C000F901F901F901F901F901F901EC01F9016D
:1000D000F901F901E801F901F901F901F901F90161
:1000E000F001F901F901F901F901F901F401F8014F
:1000F00011241FBECFEFD0E1DEBFCDBF11E0A0E0E5
:10010000B1E0E6EEF4E100E00BBF02C007900D9213
:10011000AE33B107D9F724E0AEE3B1E001C01D92E0
:10012000AF38B207E1F7CED20C94710A69CF8AB327
:100130008F7E8ABB089529B3422F50E021E030E042
:1001400002C0220F331F6A95E2F7242335232115BD
:10015000310571F0FC01E25CFE4F4081411108C0A5
:10016000FC01E25CFE4F21E0208380E090E00895F6
:10017000FC01E25CFE4F4081413049F4232B51F4F5
:10018000FC01E25CFE4F108281E090E0089580E087
:1001900090E0089580E090E008958FEF81BB95B3E3
:1001A00085BB84B38F6084BB84B3806F84BB12BA79
:1001B0000895CF93C22F2091410130914201213007
:1001C0003105D9F01CF4232B49F05CC022303105F5
:1001D00051F12330310509F440C054C02FEF25BB45
:1001E0002AE030E040E050E091D6FB01EE5DFE4FAA
:1001F000808182BB87EF85BB45C02FEF25BB2AE0FE
:1002000030E040E050E082D6CA01B90126E030E09B
:1002100040E050E07BD6FB01EE5DFE4F808182BB6B
:100220008BEF85BB2FC02FEF25BB2CE330E040E0E8
:1002300050E06CD6CA01B9012AE030E040E050E05D
:1002400065D6FB01EE5DFE4F8081C795CC27C79533
:10025000C82BC2BB8DEF85BB15C02FEF25BB28E592
:1002600032E040E050E052D6CA01B90126E030E069
:1002700040E050E04BD6FB01EE5DFE4F808182BB3B
:100280008EEF85BB80914101909142010196837070
:100290009078992324F401978C6F9F6F0196909327
:1002A000420180934101CF91089520913F01309107
:1002B000400121303105D9F01CF4232B49F065C0F1
:1002C0002230310551F12330310509F449C05DC0B8
:1002D0002FEF25BB2AE030E040E050E017D6FB01CD
:1002E000E95EFE4F808182BB87EF85BB4EC02FEF5A
:1002F00025BB2AE030E040E050E008D6CA01B90151
:1003000026E030E040E050E001D6FB01E95EFE4F20
:10031000808182BB8BEF85BB38C02FEF25BB2CE3E0
:1003200030E040E050E0F2D5CA01B9012AE030E007
:1003300040E050E0EBD5FB01E95EFE4F908140913B
:100340004E0150914F0160915001709151014795BC
:1003500044274795842F892B82BB8DEF85BB15C021
:100360002FEF25BB28E532E040E050E0CFD5CA01B1
:10037000B90126E030E040E050E0C8D5FB01E95E7D
:10038000FE4F808182BB8EEF85BB80913F019091B3
:100390004001019683709078992324F401978C6F23
:1003A0009F6F01969093400180933F0108958FEFD6
:1003B0008ABB1BBA0895E09188048E2F90E0FC015F
:1003C000E254F109E233F105A0F4EA5BFF4FC0C546
:1003D00084EF91E004C2089584EF91E00EC2089585
:1003E0008CEB92E018C208958CEB92E022C2089543
:1003F0002EC2089580910001823099F028F488235C
:1004000041F0813051F00895833099F0843069F0E3
:10041000089580E991E0E3C1089588E592E0FBC189
:10042000089588E592E005C2089580E991E0E5C16C
:1004300008950DC208954091620150916301209189
:1004400064013091650180916601909167015F932D
:100450004F933F932F939F938F938DE291E09F93C0
:100460008F937FD580914301909144012DB73EB782
:10047000285F3F4F0FB6F8943EBF0FBE2DBF181632
:10048000190654F48091430190914401019790938F
:100490004401809343010895809164019091650126
:1004A0000F9754F484E0809300018CE390E09093E4
:1004B0004401809343010895809166019091670102
:1004C0000F9754F482E0809300018EE190E09093C6
:1004D00044018093430108958091620190916301EA
:1004E0000E9754F481E0809300018EE190E09093A8
:1004F0004401809343010895109200010895809172
:100500004501813069F028F08230D9F0833051F113
:10051000089580E090E010D381E080934501089534
:100520008091600190916101892B41F110926101EC
:100530001092600181E090E0FFD282E0809345015B
:10054000089580915E0190915F01892BB9F010921E
:100550005F0110925E0182E090E0EED283E0809332
:100560004501089580915C0190915D01892B31F0E6
:1005700010925D0110925C011092450108951F9246
:100580000F920FB60F9211240BB60F922F933F9339
:100590004F935F936F937F938F939F93AF93BF938B
:1005A000EF93FF9386E082BF8091460190914701CF
:1005B000892B09F467C080914A0190914B01A09169
:1005C0004C01B0914D010196A11DB11D80934A01CE
:1005D00090934B01A0934C01B0934D0120914E019B
:1005E00030914F0140915001509151016091520161
:1005F000709153018091540190915501DADD809101
:100600004A0190914B01A0914C01B0914D01883E5F
:100610009340A105B105B0F1809152019091530131
:10062000A0915401B09155010196A11DB11D809377
:10063000520190935301A0935401B093550110922D
:100640004A0110924B0110924C0110924D014091C1
:100650004E0150914F01609150017091510181E024
:1006600090E0A0E0B0E0452B462B472B19F080E04E
:1006700090E0DC0180934E0190934F01A0935001D4
:10068000B0935101FF91EF91BF91AF919F918F91E5
:100690007F916F915F914F913F912F910F900BBE82
:1006A0000F900FBE0F901F90189586E082BF83B702
:1006B000887F83BF83B7846083BF87B7816087BF2C
:1006C0007894089574DEF1DFCFD067DD30DD789463
:1006D0006FD05AD06CD289E091E090938C048093D3
:1006E0008B04E0914801F0914901EE0FFF1FEF5F8D
:1006F000FE4F0190F081E02D099564E070E080E00C
:1007000090E019DD892B91F081E090E02091480183
:10071000309149012130310511F480E090E090934F
:10072000490180934801892B09F491D080914801B7
:10073000909149018130910571F481E090E09093AE
:10074000470180934601DBDE809145018111C9CFCD
:1007500072DE50DEC6CF892B09F0C3CF109247015D
:100760001092460120914A0130914B0140914C0179
:1007700050914D016091520170915301809154014B
:100780009091550192DDADCF8EB583608EBD8FB552
:1007900082608FBD8EB588618EBD8FB580688FBD3C
:1007A0008FB580628FBD8FEF93E097BD86BD0895B2
:1007B00087B38F7987BB87B3806687BBE1E6F0E0BC
:1007C0008081807F808380818F608083E2E6F0E09B
:1007D0008081807F808380818560808308959C01F3
:1007E000E2E6F0E09081907F908390819560908325
:1007F00039BD28BD3BBD2ABD08959C01E2E6F0E06D
:100800009081907F908390819A60908339BD28BDBC
:100810003BBD2ABD08959C01E2E6F0E09081907F07
:1008200090839081956090831BBC1ABC39BD28BD14
:1008300008959C01E2E6F0E09081907F90839081A2
:10084000956090833BBD2ABD19BC18BC0895E2E6B3
:10085000F0E08081807F808380818F6080831BBCFB
:100860001ABC19BC18BC0895109290008FEC89B97D
:100870008BB182608BB98AB188698AB908955D9B12
:10088000FECF8CB908951F920F920FB60F921124CC
:100890000BB60F922F933F934F935F936F937F937A
:1008A0008F939F93AF93BF93EF93FF938CB18093FC
:1008B00088049BB381E089278BBB80918804DFDFAC
:1008C000FF91EF91BF91AF919F918F917F916F9128
:1008D0005F914F913F912F910F900BBE0F900FBEE4
:1008E0000F901F9018951F920F920FB60F92112420
:1008F0000BB60F922F933F934F935F936F937F931A
:100900008F939F93AF93BF93EF93FF930C9B09C07B
:10091000809188009091890090935B0180935A01A7
:1009200032C0609188007091890080915A01909145
:100930005B01681B790B80E090E0F7D120E034E2A6
:1009400044E759E480D220E030E040E854E47BD230
:1009500020E034E244E75BE44FD120E030E048E6B9
:1009600052E44AD1B1D19B01215031092F38314095
:1009700020F4709367016093660181E090E09093AA
:10098000610180936001FF91EF91BF91AF919F91C1
:100990008F917F916F915F914F913F912F910F9028
:1009A0000BBE0F900FBE0F901F9018951F920F92C5
:1009B0000FB60F9211240BB60F922F933F934F93C4
:1009C0005F936F937F938F939F93AF93BF93EF93B7
:1009D000FF930D9B09C080918800909189009093AE
:1009E00059018093580132C060918800709189004C
:1009F0008091580190915901681B790B80E090E03B
:100A000094D120E034E244E759E41DD220E030E004
:100A100040E854E418D220E034E244E75BE4ECD050
:100A200020E030E048E652E4E7D04ED19B0121506F
:100A300031092F38314020F47093650160936401CF
:100A400081E090E090935F0180935E01FF91EF91D0
:100A5000BF91AF919F918F917F916F915F914F91D6
:100A60003F912F910F900BBE0F900FBE0F901F90D4
:100A700018951F920F920FB60F9211240BB60F927A
:100A80002F933F934F935F936F937F938F939F9396
:100A9000AF93BF93EF93FF930E9B09C080918800A3
:100AA00090918900909357018093560132C06091D4
:100AB0008800709189008091560190915701681BC0
:100AC000790B80E090E031D120E034E244E759E452
:100AD000BAD120E030E040E854E4B5D120E034E27F
:100AE00044E75BE489D020E030E048E652E484D07B
:100AF000EBD09B01215031092F38314020F4709305
:100B000063016093620181E090E090935D018093C6
:100B10005C01FF91EF91BF91AF919F918F917F9178
:100B20006F915F914F913F912F910F900BBE0F905E
:100B30000FBE0F901F901895CF93DF9300D0CDB7C5
:100B4000DEB79A83898329813A8181E090E0AC0104
:100B500002C0440F551F2A95E2F79A01209530955F
:100B60003BB323232BBB55E05A95F1F700002981B5
:100B70003A81AC0102C0440F551F2A95E2F79A0151
:100B80003BB3232B2BBB50E55A95F1F729813A81D2
:100B900002C0880F991F2A95E2F7809590959BB324
:100BA00089238BBB0F900F90DF91CF9108958AB36B
:100BB00087608ABB82B18F7882B98AB785618ABF24
:100BC00010928B00EAE8F0E01082109289001092F7
:100BD000880080818560808389B7806789BF2FEF17
:100BE00081EE94E0215080409040E1F700C0000089
:100BF00080E090E0A1CF08950CD0EBC0E3D040F0AE
:100C0000DAD030F021F45F3F19F0CCC0511115C19A
:100C1000CFC0F0D098F39923C9F35523B1F3951BB6
:100C2000550BBB27AA2762177307840738F09F5F0D
:100C30005F4F220F331F441FAA1FA9F333D00E2E7C
:100C40003AF0E0E830D091505040E695001CCAF7E9
:100C500029D0FE2F27D0660F771F881FBB1F2617AE
:100C600037074807AB07B0E809F0BB0B802DBF0181
:100C7000FF2793585F4F2AF09E3F510568F092C0BE
:100C8000DCC05F3FECF3983EDCF386957795679583
:100C9000B795F7959F5FC9F7880F911D9695879532
:100CA00097F90895E1E0660F771F881FBB1F621751
:100CB00073078407BA0720F0621B730B840BBA0B0F
:100CC000EE1F88F7E095089504D06894B111B5C07F
:100CD000089598D088F09F5790F0B92F9927B75171
:100CE000A0F0D1F0660F771F881F991F1AF0BA95F0
:100CF000C9F712C0B13081F09FD0B1E008959CC017
:100D0000672F782F8827B85F39F0B93FCCF38695E5
:100D100077956795B395D9F73EF490958095709542
:100D200061957F4F8F4F9F4F0895E89409C097FBBF
:100D30003EF490958095709561957F4F8F4F9F4FB2
:100D40009923A9F0F92F96E9BB279395F6958795F6
:100D500077956795B795F111F8CFFAF4BB0F11F4B9
:100D600060FF1BC06F5F7F4F8F4F9F4F16C0882360
:100D700011F096E911C0772321F09EE8872F762F96
:100D800005C0662371F096E8862F70E060E02AF0D7
:100D90009A95660F771F881FDAF7880F96958795C3
:100DA00097F9089597F99F6780E870E060E00895EB
:100DB0009FEF80EC089500240A9416161706180673
:100DC0000906089500240A9412161306140605064F
:100DD0000895092E0394000C11F4882352F0BB0FE0
:100DE00040F4BF2B11F460FF04C06F5F7F4F8F4F43
:100DF0009F4F089557FD9058440F551F59F05F3F7E
:100E000071F04795880F97FB991F61F09F3F79F02C
:100E100087950895121613061406551FF2CF4695AE
:100E2000F1DF08C0161617061806991FF1CF869530
:100E30007105610508940895E894BB276627772714
:100E4000CB0197F908950BD0C4CFB5DF28F0BADFF6
:100E500018F0952309F0A6CFABCF1124EECFCADF4F
:100E6000A0F3959FD1F3950F50E0551F629FF001BD
:100E7000729FBB27F00DB11D639FAA27F00DB11D16
:100E8000AA1F649F6627B00DA11D661F829F22279F
:100E9000B00DA11D621F739FB00DA11D621F839F26
:100EA000A00D611D221F749F3327A00D611D231FFC
:100EB000849F600D211D822F762F6A2F11249F574A
:100EC00050408AF0E1F088234AF0EE0FFF1FBB1F6D
:100ED000661F771F881F91505040A9F79E3F51050C
:100EE00070F060CFAACF5F3FECF3983EDCF38695BD
:100EF00077956795B795F795E7959F5FC1F7FE2BB7
:100F0000880F911D9695879597F90895A1E21A2E5D
:100F1000AA1BBB1BFD010DC0AA1FBB1FEE1FFF1F9D
:100F2000A217B307E407F50720F0A21BB30BE40BED
:100F3000F50B661F771F881F991F1A9469F7609534
:100F40007095809590959B01AC01BD01CF010895EE
:100F5000EE0FFF1F0024001C0BBE0790F691E02D42
:100F60000994CF93DF93CDB7DEB7AE014B5F5F4FF0
:100F7000FA0161917191AF0180918B0490918C0481
:100F800003D0DF91CF9108952F923F924F925F92BD
:100F90006F927F928F929F92AF92BF92CF92DF9289
:100FA000EF92FF920F931F93CF93DF93CDB7DEB7EE
:100FB0002B970FB6F894DEBF0FBECDBF6C017B013F
:100FC0008A01FC0117821682838181FFBFC1CE0195
:100FD00001963C01F6019381F70193FD859193FF02
:100FE00081917F01882309F4ADC1853239F493FDE5
:100FF000859193FF81917F01853221F4B60190E0C4
:10100000D6D1E8CF912C212C312CFFE1F315D8F06B
:101010008B3279F038F4803279F08332A1F4232DC9
:1010200020611DC08D3261F0803369F4232D216071
:1010300016C0832D8260382EE32DE4603E2E2AC038
:10104000F32DF8601DC037FC2DC020ED280F2A308D
:1010500040F08E32B9F436FC75C1232D2064322E57
:1010600019C036FE06C08AE0989E200D1124922EEB
:1010700011C0EAE02E9E200D1124222EF32DF062E5
:101080003F2E08C08C3621F4832D8068382E02C094
:10109000883641F4F70193FD859193FF81917F019B
:1010A0008111B3CF982F9F7D9554933028F40C5F16
:1010B0001F4F9FE399830DC0833631F0833771F062
:1010C000833509F055C020C0F801808189830E5F07
:1010D0001F4F88248394912C530112C02801F2E001
:1010E0004F0E511CF801A080B18036FE03C0692D5F
:1010F00070E002C06FEF7FEFC5014ED14C0182015D
:10110000F32DFF773F2E15C0280122E0420E511C1F
:10111000F801A080B18036FE03C0692D70E002C0E6
:101120006FEF7FEFC5012DD14C01F32DF0683F2EFD
:10113000820133FC19C0822D90E088169906A0F434
:10114000B60180E290E033D12A94F5CFF50137FC67
:10115000859137FE81915F01B60190E028D1211081
:101160002A9421E0821A91088114910479F7E1C050
:10117000843611F0893639F5F80137FE07C06081F1
:101180007181828193810C5F1F4F08C060817181E2
:10119000072E000C880B990B0E5F1F4FF32DFF7667
:1011A0003F2E97FF09C090958095709561957F4F70
:1011B0008F4F9F4FF0683F2E2AE030E0A30133D1DC
:1011C000882E861844C0853731F4232D2F7EB22E09
:1011D0002AE030E025C0932D997FB92E8F36C1F0DB
:1011E00018F4883579F0AEC0803719F0883721F0CF
:1011F000A9C0E92FE061BE2EB4FE0DC0FB2DF46046
:10120000BF2E09C034FE0AC0292F2660B22E06C0A8
:1012100028E030E005C020E130E002C020E132E00B
:10122000F801B7FE07C060817181828193810C5FF4
:101230001F4F06C06081718180E090E00E5F1F4FFC
:10124000A301F1D0882E8618FB2DFF773F2E36FEA6
:101250000DC0232D2E7FA22E891458F434FE0BC00E
:1012600032FC09C0832D8E7EA82E05C0B82CA32C7D
:1012700003C0B82C01C0B92CA4FE0FC0FE01E80DBC
:10128000F11D8081803321F49A2D997EA92E09C009
:10129000A2FE06C0B394B39404C08A2D867809F0E8
:1012A000B394A3FC10C0A0FE06C0B21480F4280CB6
:1012B000922C9B180DC0B21458F4B60180E290E055
:1012C00076D0B394F8CFB21418F42B1802C0982C2F
:1012D000212CA4FE0FC0B60180E390E068D0A2FEEE
:1012E00016C0A1FC03C088E790E002C088E590E04A
:1012F000B6010CC08A2D867851F0A1FE02C08BE2A7
:1013000001C080E2A7FC8DE2B60190E050D08914C4
:1013100030F4B60180E390E04AD09A94F8CF8A94F2
:10132000F301E80DF11D8081B60190E040D08110FD
:10133000F6CF222009F44ECEB60180E290E037D0FD
:101340002A94F7CFF6018681978102C08FEF9FEF35
:101350002B960FB6F894DEBF0FBECDBFDF91CF91B5
:101360001F910F91FF90EF90DF90CF90BF90AF90C3
:101370009F908F907F906F905F904F903F902F90B5
:101380000895FC010590615070400110D8F78095D8
:1013900090958E0F9F1F0895FC0161507040019041
:1013A0000110D8F7809590958E0F9F1F08950F9389
:1013B0001F93CF93DF93FB01238121FD03C08FEFA8
:1013C0009FEF2CC022FF16C04681578124813581B2
:1013D0004217530744F4A081B1819D012F5F3F4F15
:1013E000318320838C93268137812F5F3F4F378352
:1013F000268314C08B01EC01FB010084F185E02DF4
:101400000995892BE1F6D80116968D919C91179735
:10141000019617969C938E931697CE01DF91CF91EC
:101420001F910F910895FA01AA27283051F1203118
:1014300081F1E8946F936E7F6E5F7F4F8F4F9F4F68
:10144000AF4FB1E03ED0B4E03CD0670F781F891FAA
:101450009A1FA11D680F791F8A1F911DA11D6A0F78
:10146000711D811D911DA11D20D009F468943F912B
:101470002AE0269F11243019305D3193DEF6CF012A
:101480000895462F4770405D4193B3E00FD0C9F7F0
:10149000F6CF462F4F70405D4A3318F0495D31FD5D
:1014A0004052419302D0A9F7EACFB4E0A6959795B0
:1014B000879577956795BA95C9F700976105710586
:1014C00008959B01AC010A2E0694579547953795D0
:1014D0002795BA95C9F7620F731F841F951FA01D2A
:0614E0000895F894FFCF0F
:1014E60003DB01FA011B027F02000000020000007C
:1014F600003F04000000003F065B4F666D7D277FBE
:1015060067803F065B4F666D7D277F67804C3D2574
:0E1516006420433D256420523D25640D0A00EB
:00000001FF
