S019000031322E4932435F4D5F4C4F4F504241434B2E7372656366
S113000045C0000060C000005EC000005CC000008D
S11300105AC0000058C0000056C0000054C0000080
S113002052C0000050C000004EC000004CC0000090
S11300304AC0000048C0000046C0000044C00000A0
S113004016C1000040C0000042C100003CC00000D6
S11300503AC0000038C0000036C0000034C00000C0
S113006032C0000030C000002EC000002CC00000D0
S11300702AC0000028C0000026C0000024C00000E0
S113008022C0000020C000001EC0000011241FBEBA
S1130090CFEFD0E1DEBFCDBF11E0A0E0B1E0E2E3FD
S11300A0FAE000E00BBF02C007900D92AC3CB10730
S11300B0D9F724E0ACECB1E001C01D92AA3FB2072D
S11300C0E1F7FAD0B4C49CCF81B3836081BB1092B2
S11300D0710088E480937000089584EA809374002A
S11300E0809174008823E4F780917100887F8830C0
S11300F021F0803119F480E0089580E0089584E9C6
S11301008093740085E38A95F1F700000895809345
S1130110730084E880937400809174008823E4F76A
S113012080917100887F08958093730084E88093A0
S11301307400809174008823E4F780917100887FB3
S1130140089584EC80937400809174008823E4F70C
S113015080917300089584E8809374008091740002
S11301608823E4F7809173000895FF920F931F93FF
S1130170CF93DF9300D000D0CDB7DEB781E492E413
S11301809A83898383E490E09C838B83A6DF88230E
S113019021F08EE091E06ED151C080EAB8DF883161
S11301A081F085E291E066D1AADF48C0BDDF8832E4
S11301B029F081E491E05ED1A2DF40C00F5F1F4FC0
S11301C002C000E010E0E1E0F0E0EC0FFD1FE00F02
S11301D0F11F80818111EACF92DF8FE19EE40197C4
S11301E0F1F700C0000079DF882321F08DE591E06C
S11301F041D124C081EA8BDF803429F08AE791E081
S113020039D17DDF1BC09DDF182F9BDF082FA3DFB3
S1130210F82E75DF1F92FF921F920F931F921F9368
S1130220CE0101969F938F938CE991E09F938F93D6
S11302300ED10FB6F894DEBF0FBECDBF0F900F9056
S11302400F900F90DF91CF911F910F91FF90089520
S11302503BDF80EB91E00ED188DF2FEF83ED90E35D
S1130260215080409040E1F700C00000F5CF1F927C
S11302700F920FB60F9211248F939F9386E082BF43
S11302808091CC019091CD0101969093CD01809302
S1130290CC019F918F910F900FBE0F901F901895D6
S11302A086E082BF83B7887F83BF83B7846083BFC0
S11302B087B7816087BF0895F3DF93D080E091E032
S11302C09093F7048093F6047894C2DFFFCF1F92D3
S11302D00F920FB60F9211240BB60F922F933F93E8
S11302E04F935F936F937F938F939F93AF93BF933A
S11302F0EF93FF93CF93DF931F92CDB7DEB78CB10B
S113030089838091D2019091D30101962AE030E053
S1130310B90176D0FC018091D0019091D101B9014D
S11303206FD0E817F90709F446C089818A3019F0BB
S113033089818D3021F52091D0013091D1018091B6
S1130340CE019091CF0140E5429FF001439FF00D13
S11303501124EC52FE4FE80FF91F10821092CF01C6
S11303601092CE018091D2019091D30101966AE05E
S113037070E046D09093D3018093D2011CC0609169
S1130380D2017091D3018091CE019091CF019C0153
S11303902F5F3F4F3093CF012093CE01498150E529
S11303A0569F9001579F300D11242C523E4FF90156
S11303B0E80FF91F40830F90DF91CF91FF91EF91E8
S11303C0BF91AF919F918F917F916F915F914F9169
S11303D03F912F910F900BBE0F900FBE0F901F9067
S11303E01895109290008FEC89B98BB182608BB90B
S11303F08AB188698AB908955D9BFECF8CB9089546
S113040097FB072E16F4009406D077FD08D00BD086
S113041007FC05D03EF4909581959F4F0895709503
S113042061957F4F0895AA1BBB1B51E107C0AA1F0A
S1130430BB1FA617B70710F0A61BB70B881F991F81
S11304405A95A9F780959095BC01CD010895CF9355
S1130450DF93CDB7DEB7AE014B5F5F4FFA01619119
S11304607191AF018091F6049091F70433D0DF913C
S1130470CF9108950F931F93CF93DF93E091F604E8
S1130480F091F704238121FF1BC08C01D0E0C0E070
S1130490F80181918F016091F6047091F704DB01FA
S11304A01896ED91FC911997882331F00995892BC1
S11304B079F3DFEFCFEFECCF8AE00995892B19F0C0
S11304C08FEF9FEF02C08D2F9C2FDF91CF911F9153
S11304D00F9108952F923F924F925F926F927F9265
S11304E08F929F92AF92BF92CF92DF92EF92FF9240
S11304F00F931F93CF93DF93CDB7DEB72B970FB630
S1130500F894DEBF0FBECDBF6C017B018A01FC01F4
S113051017821682838181FFBFC1CE0101963C01FF
S1130520F6019381F70193FD859193FF81917F01FA
S1130530882309F4ADC1853239F493FD859193FF85
S113054081917F01853221F4B60190E0D6D1E8CFC4
S1130550912C212C312CFFE1F315D8F08B3279F05A
S113056038F4803279F08332A1F4232D20611DC048
S11305708D3261F0803369F4232D216016C0832D00
S11305808260382EE32DE4603E2E2AC0F32DF860FD
S11305901DC037FC2DC020ED280F2A3040F08E32CC
S11305A0B9F436FC75C1232D2064322E19C036FEF1
S11305B006C08AE0989E200D1124922E11C0EAE014
S11305C02E9E200D1124222EF32DF0623F2E08C002
S11305D08C3621F4832D8068382E02C0883641F48D
S11305E0F70193FD859193FF81917F018111B3CF31
S11305F0982F9F7D9554933028F40C5F1F4F9FE3F1
S113060099830DC0833631F0833771F0833509F057
S113061055C020C0F801808189830E5F1F4F882454
S11306208394912C530112C02801F2E04F0E511C07
S1130630F801A080B18036FE03C0692D70E002C0CD
S11306406FEF7FEFC5014ED14C018201F32DFF778F
S11306503F2E15C0280122E0420E511CF801A08053
S1130660B18036FE03C0692D70E002C06FEF7FEFEA
S1130670C5012DD14C01F32DF0683F2E820133FCCE
S113068019C0822D90E088169906A0F4B60180E284
S113069090E033D12A94F5CFF50137FC859137FEEC
S11306A081915F01B60190E028D121102A9421E0C4
S11306B0821A91088114910479F7E1C0843611F00B
S11306C0893639F5F80137FE07C06081718182816E
S11306D093810C5F1F4F08C060817181072E000C4D
S11306E0880B990B0E5F1F4FF32DFF763F2E97FF5C
S11306F009C090958095709561957F4F8F4F9F4F5E
S1130700F0683F2E2AE030E0A30133D1882E86180A
S113071044C0853731F4232D2F7EB22E2AE030E0F9
S113072025C0932D997FB92E8F36C1F018F48835E2
S113073079F0AEC0803719F0883721F0A9C0E92FCD
S1130740E061BE2EB4FE0DC0FB2DF460BF2E09C0C7
S113075034FE0AC0292F2660B22E06C028E030E0FD
S113076005C020E130E002C020E132E0F801B7FE2C
S113077007C060817181828193810C5F1F4F06C025
S11307806081718180E090E00E5F1F4FA301F1D082
S1130790882E8618FB2DFF773F2E36FE0DC0232DA5
S11307A02E7FA22E891458F434FE0BC032FC09C0EB
S11307B0832D8E7EA82E05C0B82CA32C03C0B82C84
S11307C001C0B92CA4FE0FC0FE01E80DF11D80810B
S11307D0803321F49A2D997EA92E09C0A2FE06C069
S11307E0B394B39404C08A2D867809F0B394A3FC1F
S11307F010C0A0FE06C0B21480F4280C922C9B18E2
S11308000DC0B21458F4B60180E290E076D0B394EF
S1130810F8CFB21418F42B1802C0982C212CA4FE83
S11308200FC0B60180E390E068D0A2FE16C0A1FC20
S113083003C088E790E002C088E590E0B6010CC0F0
S11308408A2D867851F0A1FE02C08BE201C080E2BD
S1130850A7FC8DE2B60190E050D0891430F4B601C3
S113086080E390E04AD09A94F8CF8A94F301E80D9B
S1130870F11D8081B60190E040D08110F6CF222096
S113088009F44ECEB60180E290E037D02A94F7CF37
S1130890F6018681978102C08FEF9FEF2B960FB6EA
S11308A0F894DEBF0FBECDBFDF91CF911F910F91A2
S11308B0FF90EF90DF90CF90BF90AF909F908F907C
S11308C07F906F905F904F903F902F900895FC0120
S11308D00590615070400110D8F7809590958E0F67
S11308E09F1F0895FC016150704001900110D8F7DA
S11308F0809590958E0F9F1F08950F931F93CF930C
S1130900DF93FB01238121FD03C08FEF9FEF2CC0F8
S113091022FF16C04681578124813581421753072F
S113092044F4A081B1819D012F5F3F4F3183208327
S11309308C93268137812F5F3F4F3783268314C0E2
S11309408B01EC01FB010084F185E02D0995892BD5
S1130950E1F6D80116968D919C91179701961796FA
S11309609C938E931697CE01DF91CF911F910F9197
S11309700895FA01AA27283051F1203181F1E89431
S11309806F936E7F6E5F7F4F8F4F9F4FAF4FB1E07E
S11309903ED0B4E03CD0670F781F891F9A1FA11D79
S11309A0680F791F8A1F911DA11D6A0F711D811D7A
S11309B0911DA11D20D009F468943F912AE0269F3F
S11309C011243019305D3193DEF6CF010895462F9E
S11309D04770405D4193B3E00FD0C9F7F6CF462F7F
S11309E04F70405D4A3318F0495D31FD40524193E8
S11309F002D0A9F7EACFB4E0A695979587957795A5
S1130A006795BA95C9F700976105710508959B012B
S1130A10AC010A2E06945795479537952795BA95B4
S1130A20C9F7620F731F841F951FA01D0895F894C2
S1050A30FFCFF2
S1130A320000000200000000FC010000000045521A
S1130A42523A205354415254206661696C656420C1
S1130A5221212121004552523A20534C4156455FEF
S1130A6241444452202B204E41434B202121212139
S1130A72004552523A2044415441205772697465E8
S1130A82202B204E41434B2021212121004552524B
S1130A923A20535441525428726561642920666194
S1130AA2696C65642021212121004552523A205368
S1130AB24C4156455F414444522872656164292081
S1130AC22B204E41434B20212121210054583A200E
S1130AD225732C2052583A202563256325630A0086
S1130AE2493243206C6F6F706261636B207465736B
S10F0AF2742073746172742021212100AF
S9030000FC
