:1000000045C0000060C000005EC000005CC0000091
:100010005AC0000058C0000056C0000054C0000084
:1000200052C0000050C000004EC000004CC0000094
:100030004AC0000048C0000046C0000044C00000A4
:1000400042C0000040C000003EC000003CC00000B4
:100050003AC0000038C0000036C0000034C00000C4
:1000600032C0000030C000002EC000002CC00000D4
:100070002AC0000028C0000026C0000024C00000E4
:1000800022C0000020C000001EC0000011241FBEBE
:10009000CFEFD0E1DEBFCDBF11E0A0E0B1E0EAE0FC
:1000A000F9E000E00BBF02C007900D92A831B10744
:1000B000D9F721E0A8E1B1E001C01D92AE32B2074C
:1000C000E1F76FD320C49CCF81B3877881BB0895BB
:1000D00020B3422F50E021E030E002C0220F331F56
:1000E0006A95E2F72423352321153105A1F0FC019F
:1000F000E85EFE4F408141110EC0EFE5FAEE319708
:10010000F1F700C00000FC01E85EFE4F21E0208313
:1001100080E090E00895FC01E85EFE4F40814130B0
:1001200079F4232B81F4EFE5FAEE3197F1F700C073
:100130000000FC01E85EFE4F108281E090E008952F
:1001400080E090E0089580E090E008958FEF84BB18
:1001500087B3806F87BB15BA08951F93CF93DF9342
:10016000CDB7DEB72B970FB6F894DEBF0FBECDBF6D
:10017000122F2BE0E0E0F1E0DE01119601900D92EC
:100180002A95E1F72091200130912101213031059C
:1001900001F11CF4232B49F064C022303105A1F198
:1001A0002330310509F447C05CC02FE728BB2AE0A3
:1001B00030E040E050E071D3E1E0F0E0EC0FFD1FF3
:1001C000E60FF71F8081179511271795182B15BB80
:1001D00048C02FEB28BB2AE030E040E050E05DD380
:1001E000CA01B90126E030E040E050E056D3E1E03A
:1001F000F0E0EC0FFD1FE60FF71F80811795112728
:100200001795182B15BB2DC02FED28BB2CE330E024
:1002100040E050E042D3CA01B9012AE030E040E0BA
:1002200050E03BD3E1E0F0E0EC0FFD1FE60FF71FDD
:10023000808185BB16C02FEE28BB28E532E040E068
:1002400050E02BD3CA01B90126E030E040E050E095
:1002500024D3E1E0F0E0EC0FFD1FE60FF71F8081F3
:1002600085BB809120019091210101968370907847
:10027000992324F401978C6F9F6F0196909321012D
:10028000809320012B960FB6F894DEBF0FBECDBF32
:10029000DF91CF911F910895209122013091230188
:1002A0004091240150912501609126017091270110
:1002B000809128019091290150DF8FE99FE00197FB
:1002C000F1F700C0000080912A0190912B01A091CC
:1002D0002C01B0912D010196A11DB11D80932A0121
:1002E00090932B01A0932C01B0932D01883E934055
:1002F000A105B105B0F110922A0110922B011092C4
:100300002C0110922D018091260190912701A0913E
:100310002801B09129010196A11DB11D80932601EC
:1003200090932701A0932801B093290181E090E0E8
:10033000A0E0B0E04091220150912301609124019E
:1003400070912501452B462B472B19F080E090E05A
:10035000DC018093220190932301A0932401B093A8
:1003600025010895CF93DF93CDB7DEB767970FB61A
:10037000F894DEBF0FBECDBF2BE0E0E0F1E0DE0180
:10038000119601900D922A95E1F726E0EBE0F1E05D
:10039000DE011C9601900D922A95E1F726E0E1E13D
:1003A000F1E0DE01529601900D922A95E1F720913D
:1003B0001E0130911F0121303105D9F01CF4232B8F
:1003C00041F04DC02230310559F123303105C1F1E2
:1003D00046C02FE728BB2AE030E040E050E05DD285
:1003E000E1E0F0E0EC0FFD1FE60FF71F808185BB19
:1003F00036C02FEB28BB2AE030E040E050E04DD281
:10040000CA01B90126E030E040E050E046D2E1E028
:10041000F0E0EC0FFD1FE60FF71F808185BB1FC0CA
:100420002FED28BB26E030E040E050E036D2ECE093
:10043000F0E0EC0FFD1FE60FF71F808185BB0FC0BA
:100440002FEE28BB26E030E040E050E026D2E2E18B
:10045000F0E0EC0FFD1FE60FF71F808185BB809158
:100460001E0190911F01019683709078992324F4C6
:1004700001978C6F9F6F019690931F0180931E01CF
:1004800067960FB6F894DEBF0FBECDBFDF91CF9158
:10049000089520912201309123014091240150912F
:1004A000250160912601709127018091280190918A
:1004B000290158DF8FE99FE00197F1F700C00000A4
:1004C00080912A0190912B01A0912C01B0912D01D6
:1004D0000196A11DB11D80932A0190932B01A09339
:1004E0002C01B0932D01883E9340A105B105B0F1D8
:1004F00010922A0110922B0110922C0110922D01C2
:100500008091260190912701A0912801B0912901A5
:100510000196A11DB11D8093260190932701A09300
:100520002801B093290181E090E0A0E0B0E0409183
:100530002201509123016091240170912501452BE6
:10054000462B472B19F080E090E0DC0180932201DC
:1005500090932301A0932401B09325010895CF9295
:10056000DF92EF92FF921F93CF93DF93CDB7DEB769
:100570002B970FB6F894DEBF0FBECDBF1BE0E0E0B7
:10058000F1E0DE01119601900D921A95E1F7E091EC
:100590001C01F0911D01E130F10539F11CF4EF2B44
:1005A00041F062C0E230F105C9F1339709F446C069
:1005B0005BC08FE788BB0F2EFAE0CF2ED12CE12C49
:1005C000F12CF02DCA01B901A701960166D1CA012B
:1005D000B901A701960161D1E1E0F0E0EC0FFD1F48
:1005E000E60FF71F808185BB3FC08FEB88BBCA0138
:1005F000B90124E630E040E050E04FD1CA01B90132
:100600002AE030E040E050E048D1E1E0F0E0EC0FDB
:10061000FD1FE60FF71F808185BB26C02FED28BB8D
:100620002AE030E040E050E038D1E1E0F0E0EC0FCB
:10063000FD1FE60FF71F808185BB16C02FEE28BB7C
:100640002AE030E040E050E028D1CA01B90126E0BC
:1006500030E040E050E021D1E1E0F0E0EC0FFD1FA0
:10066000E60FF71F808185BB80911C0190911D01D1
:10067000019683709078992324F401978C6F9F6F73
:10068000019690931D0180931C012B960FB6F89450
:10069000DEBF0FBECDBFDF91CF911F91FF90EF90D6
:1006A000DF90CF90089520912A0130912B01409145
:1006B0002C0150912D0160912601709127018091AC
:1006C0002801909129014BDF8FE99FE00197F1F715
:1006D00000C00000089520912A0130912B01409123
:1006E0002C0150912D01609126017091270180917C
:1006F00028019091290133DF8FE99FE00197F1F7FD
:1007000000C0000080912A0190912B01A0912C0142
:10071000B0912D010196A11DB11D80932A019093E6
:100720002B01A0932C01B0932D01883E9340A1058D
:10073000B105B0F110922A0110922B0110922C01F8
:1007400010922D018091260190912701A0912801FE
:10075000B09129010196A11DB11D809326019093AE
:100760002701A0932801B093290181E090E0A0E047
:10077000B0E04091220150912301609124017091D9
:100780002501452B462B472B19F080E090E0DC013A
:100790008093220190932301A0932401B09325011B
:1007A000089592DCD3DC10E0C0E0D0E063E070E0BC
:1007B00080E090E08DDC892BF9F010922A011092F4
:1007C0002B0110922C0110922D01109226011092F3
:1007D00027011092280110922901109222011092F3
:1007E00023011092240110922501CE01019663E0AD
:1007F00070E040D0EC0110E0209711F44DDDD6CF31
:10080000C130D10511F445DED1CFC230D10571F62A
:1008100064E070E081E090E05BDC892B29F081E00E
:10082000113009F480E0182F65E070E082E090E07C
:100830004FDC892BC9F010922A0110922B011092E3
:100840002C0110922D011092260110922701109276
:100850002801109229011092220110922301109276
:1008600024011092250111E0113011F434DF9ECFE4
:100870001ADF9CCF97FB072E16F4009406D077FD65
:1008800008D02DD007FC05D03EF4909581959F4F60
:100890000895709561957F4F0895A1E21A2EAA1BC5
:1008A000BB1BFD010DC0AA1FBB1FEE1FFF1FA21720
:1008B000B307E407F50720F0A21BB30BE40BF50B1D
:1008C000661F771F881F991F1A9469F760957095A6
:1008D000809590959B01AC01BD01CF010895AA1BA5
:1008E000BB1B51E107C0AA1FBB1FA617B70710F01B
:1008F000A61BB70B881F991F5A95A9F7809590954D
:0A090000BC01CD010895F894FFCF6B
:10090A003F065B4F666D7D277F6780080601000002
:08091A0000000000013008009C
:00000001FF
