:1000000045C0000053C0000051C000004FC00000B8
:100010004DC000004BC0000049C0000047C00000B8
:1000200045C0000043C0000041C000003FC00000C8
:100030003DC000003BC0000039C0000037C00000D8
:1000400035C0000033C0000031C000002FC00000E8
:100050002DC000002BC0000029C0000027C00000F8
:1000600025C0000023C0000021C000001FC0000008
:100070001DC000001BC0000019C0000017C0000018
:1000800015C0000013C0000011C0000011241FBEE5
:10009000CFEFD0E1DEBFCDBF21E0A0E0B1E001C0F5
:1000A0001D92A430B207E1F77AD093C0A9CF81B3F3
:1000B000877881BB089520B3422F50E021E030E0E3
:1000C00002C0220F331F6A95E2F72423352321153E
:1000D0003105A1F0FC01E050FF4F408141110EC0FD
:1000E000EFE5FAEE3197F1F700C00000FC01E050B7
:1000F000FF4F21E0208380E090E00895FC01E05074
:10010000FF4F4081413079F4232B81F4EFE5FAEE83
:100110003197F1F700C00000FC01E050FF4F108262
:1001200081E090E0089580E090E0089580E090E024
:1001300008958FEF8ABB1BBA089580E090E011C04C
:1001400021E0082E01C0220F0A94EAF72BBB2FEF03
:1001500036E741E0215030404040E1F700C0000068
:1001600001968830910564F3089580E090E013C013
:1001700020E830E0082E02C0359527950A94E2F772
:100180002BBB2FEF36E741E0215030404040E1F7F4
:1001900000C0000001968830910554F3089587DF70
:1001A000C8DFC0E0D0E063E070E080E090E083DF93
:1001B000892B31F081E0CD2B09F080E0C82FD0E011
:1001C000209711F4BADFEFCFC130D10561F7CDDF51
:0601D000EACFF894FFCF16
:00000001FF
