S016000030312E4C45445F434F4E54524F4C2E737265632A
S113000045C0000060C000005EC000005CC000008D
S11300105AC0000058C0000056C0000054C0000080
S113002052C0000050C000004EC000004CC0000090
S11300304AC0000048C0000046C0000044C00000A0
S113004042C0000040C000003EC000003CC00000B0
S11300503AC0000038C0000036C0000034C00000C0
S113006032C0000030C000002EC000002CC00000D0
S11300702AC0000028C0000026C0000024C00000E0
S113008022C0000020C000001EC0000011241FBEBA
S1130090CFEFD0E1DEBFCDBF11E0A0E0B1E0E8EEEC
S11300A0F1E000E00BBF02C007900D92A031B10750
S11300B0D9F721E0A0E1B1E001C01D92A431B2075B
S11300C0E1F755D08FC09CCF81B3877881BB089569
S11300D020B3422F50E021E030E002C0220F331F52
S11300E06A95E2F72423352321153105A1F0FC019B
S11300F0E05FFE4F408141110EC0EFE5FAEE31970B
S1130100F1F700C00000FC01E05FFE4F21E0208316
S113011080E090E00895FC01E05FFE4F40814130B3
S113012079F4232B81F4FC01E05FFE4F10828FE50C
S11301309AEE0197F1F700C0000081E090E0089585
S113014080E090E0089580E090E008958FEF8BBB0D
S113015008951BBA08958FE08BBB089580EF8BBB85
S1130160089585E58BBB08958AEA8BBB0895ACDFBF
S113017000E010E0C0E0D0E063E070E080E090E0F8
S1130180A7DF892B79F0C430D10511F4C0E0D0E0A9
S1130190FE01EE0FFF1FE85FFE4F0190F081E02D9E
S11301A00995219664E070E081E090E091DF892B6D
S11301B081F00430110511F400E010E0F801EE0FB5
S11301C0FF1FE050FF4F0190F081E02D09950F5F74
S11301D01F4F66E070E083E090E07ADF892B61F2E4
S10B01E0B8DFC6CFF894FFCF8D
S11301E8A900B100B400A600A900A600AB00AE00A7
S9030000FC
