S018000031322E4932435F535F4C4F504241434B2E73726563B0
S113000045C0000060C000005EC000005CC000008D
S11300105AC0000058C0000056C0000054C0000080
S113002052C0000050C000004EC000004CC0000090
S11300304AC0000048C0000046C0000044C00000A0
S1130040EEC0000040C000001AC100003CC0000027
S11300503AC0000038C0000036C0000034C00000C0
S113006032C0000030C000002EC000002CC00000D0
S11300702AC0000028C0000026C0000024C00000E0
S113008022C0000021C000001EC0000011241FBEB9
S1130090CFEFD0E1DEBFCDBF11E0A0E0B1E0E2E000
S11300A0F4E000E00BBF02C007900D92AE30B10740
S11300B0D9F724E0AEE0B1E001C01D92A034B2074C
S11300C0E1F7D2D09CC19CCF1F920F920FB60F9232
S11300D011240BB60F922F933F938F939F93EF931B
S11300E0FF9380917100887F883AE9F140F4803869
S11300F0B9F0803A81F1803609F074C009C0803CBF
S113010009F468C0883C09F465C0883B81F16AC081
S1130110109211011092100185EC8093740065C057
S1130120809110019091110108978CF48091100135
S1130130909111019C012F5F3F4F30931101209347
S1130140100120917300FC01E65EFE4F208385ECD4
S1130150809374004AC010920F0110920E0185EC36
S11301608093740042C010920F0110920E012091EE
S11301700E0130910F018091100190911101281707
S1130180390794F480910E0190910F019C012F5F27
S11301903F4F30930F0120930E01FC01E65EFE4FAA
S11301A080818093730003C08FEF8093730020914C
S11301B00E0130910F0180911001909111012817C7
S11301C0390724F085E8809374000FC085EC809390
S11301D074000BC010920F0110920E0185EC8093F5
S11301E0740003C085EC80937400FF91EF919F919C
S11301F08F913F912F910F900BBE0F900FBE0F90D8
S11302001F90189581B3836081BB80EA809372004C
S113021085E4809374000895F5DF7894FFCF1F92EE
S11302200F920FB60F9211248F939F9386E082BF93
S11302308091120190911301019690931301809380
S113024012019F918F910F900FBE0F901F901895E0
S113025086E082BF83B7887F83BF83B7846083BF10
S113026087B7816087BF0895F3DF93D080E091E082
S113027090933D0480933C047894CEDFFFCF1F928B
S11302800F920FB60F9211240BB60F922F933F9338
S11302904F935F936F937F938F939F93AF93BF938A
S11302A0EF93FF93CF93DF931F92CDB7DEB78CB15B
S11302B08983809118019091190101962AE030E018
S11302C0B90176D0FC018091160190911701B90112
S11302D06FD0E817F90709F446C089818A3019F00C
S11302E089818D3021F5209116013091170180917B
S11302F014019091150140E5429FF001439FF00DD8
S11303001124E65EFE4FE80FF91F108210921501CA
S113031010921401809118019091190101966AE0DC
S113032070E046D090931901809318011CC060912D
S113033018017091190180911401909115019C018B
S11303402F5F3F4F3093150120931401498150E5ED
S1130350569F9001579F300D1124265E3E4FF901A0
S1130360E80FF91F40830F90DF91CF91FF91EF9138
S1130370BF91AF919F918F917F916F915F914F91B9
S11303803F912F910F900BBE0F900FBE0F901F90B7
S11303901895109290008FEC89B98BB182608BB95B
S11303A08AB188698AB908955D9BFECF8CB9089596
S11303B097FB072E16F4009406D077FD08D00BD0D7
S11303C007FC05D03EF4909581959F4F0895709554
S11303D061957F4F0895AA1BBB1B51E107C0AA1F5B
S11303E0BB1FA617B70710F0A61BB70B881F991FD2
S11303F05A95A9F780959095BC01CD010895F8947C
S1050400FFCF28
S11104020000000200000000D4010000000011
S9030000FC
